:020000040800F2
:1000000060080020D5000008A12800081F2700086C
:1000100000000000000000000000000000000000E0
:10002000000000000000000000000000A5280008FB
:100030000000000000000000A3280008D1280008EC
:10004000E700000800000000E7000008E7000008E3
:10005000E7000008E700000801120008E7000008B8
:10006000000000004911000859110008E7000008CD
:10007000E7000008E7000008E700000800000000B3
:10008000E70000080000000000000000E700000892
:1000900000000000E7000008E7000008E700000893
:1000A000E7000008E7000008E7000008E700000894
:1000B000D92F000800000000000000000000000030
:1000C0000348854600F068FE004800470D360008EA
:1000D000600800200448804704480047FEE7FEE728
:1000E000FEE7FEE7FEE7FEE73D290008C100000845
:1000F00003460B439B0703D009E008C9121F08C041
:10010000042AFAD203E00B780370401C491C521EEB
:10011000F9D27047D2B201E00270401C491EFBD2F6
:1001200070470022F6E710B513460A460446194602
:10013000FFF7F0FF204610BD0FB400B58DB0099059
:100140000B9010A900200091C0430A9000200C9051
:1001500006480690064807906A4609A80F9900F0DD
:100160003BFD0DB008BC04B018470000F90B0008B7
:10017000190C0008FFB50027FF4383B000205C681E
:1001800001909E681D46A9697F1C049888470090CD
:10019000296A88470028F6D10098401C0CD003201B
:1001A00040028443002E19DD600614D500982B28E8
:1001B00009D02D280FD103E00020C04307B0F0BDC7
:1001C000012080020443A9697F1C04988847761E99
:1001D0000090002E02DD0098302803D005980028FA
:1001E00025D035E0012040020443A969761E7F1C1A
:1001F000049888470090002E03DD782805D0582801
:1002000003D00598002810D022E00598002801D0DE
:1002100010281DD1012040028443A969761E7F1C4D
:10022000049888470090102002E0082000E00A208F
:1002300005900DE0012149020C43059A0199761EB3
:10024000514308180190A9697F1C049888470090C1
:10025000002E05DD0599009800F0A9FC0028E9DAD8
:10026000E96904988847A00502D40120C043A5E7A6
:10027000E00722D1600611D56005019800D5404203
:1002800029680A1D2A600968220501D5087014E052
:10029000220701D5088010E008600EE02868011DE3
:1002A00029600068210502D50199017005E0210748
:1002B000019901D5018000E0016038467EE7FFB575
:1002C000002083B000905068019091691446002688
:1002D00097680498884705460C990698084305D006
:1002E00009E0A169761C049888470546216A2846DA
:1002F00088470028F5D1681C03D00198C00704D0B6
:1003000017E00020C04307B0F0BD2068011D216048
:10031000006800900DE00198C00704D100980570B6
:100320000098401C0090A169761C7F1E04988847A5
:100330000546002F1CDD681C1AD0069800280FD037
:10034000E817C00E401941118A000699400951185A
:1003500040012A1A0968012090400142DBD107E0E0
:100360000C980028D7D1216A284688470028D2D087
:10037000E169049888470C98002807D1002E05DD14
:100380000198C00702D1009800210170A068B8420E
:1003900004DD0C98002804D0002F02D00120C043B7
:1003A000B1E73046AFE70000FFB5087889B01546E1
:1003B000FF2805D0491C2D2804D00022002407E086
:1003C00000240BE00122F9E70A235C430419491CCD
:1003D0000878FF28F8D1002A00D064420020049059
:1003E0002A7801462D2A01D02B2A0FD16D1C2D2AE7
:1003F00002D00022049209E00122FBE700260A2233
:1004000033466D1C00F098FB381871412F78FF2F90
:10041000F4D10C9AA218069202460A4304D0FF2394
:10042000069A9133DA4205DA002109980A4606C095
:100430000DB0F0BD0024B74AB54D2646079200F036
:100440009DFC029006980391002801DA474200E0E3
:10045000074639050020AF4A001C51410191009028
:1004600012E0F80707D022462B463046079900F0E5
:1004700007FA0646079122462B461046194600F019
:10048000FFF904460D467F10002FEAD10698019B24
:100490000028009A0399029806DA00F059FA3246C9
:1004A000079B00F055FA05E000F0EAF93246079B99
:1004B00000F0E6F9049A002A02D00122D207514046
:1004C000099A03C2B4E7FFB591B000200990002556
:1004D000ED432E209E685C681F460190B9696D1C33
:1004E000129888470090396A88470028F6D100980A
:1004F000401C0AD00D20C0018443002E12DD00985C
:100500002B2809D02D280DD103E00020C04315B0C1
:10051000F0BD012080020443B9696D1C1298884720
:10052000761E009003A9600501D52D2000E02B2048
:100530006A461073491C0CA80F9102900AE0B96931
:100540006D1C1298884700900120400204431398C4
:10055000761E0560002E02DD00983028EFD001994C
:100560000098884245D18020044308E00998401E45
:1005700009900120400204431399681C0860B9697E
:100580006D1C761E1298884700903028EED030E01F
:100590000199884205D1200603D480200443761EA9
:1005A0001DE0009803F067F8002825D001214902DA
:1005B0000C43009807AA0F9903323038761E9142F7
:1005C00008D208700F98401C0F90200607D5099894
:1005D000401E03E0200602D40998401C0990A005A3
:1005E00002D51399681C0860B9696D1C1298884778
:1005F0000090002ECCDC59E0002E57DD00986528D5
:1006000001D0452852D1A00550D5032000028443D3
:10061000B9696D1C761E129888470090002E0CDD7B
:100620002B2804D02D2808D1FF2001300443B969BC
:100630006D1C12988847761E0090E00501D52D218B
:1006400000E02B21029801700298401C029001905A
:1006500025E00120400204430EA902980131761ED4
:1006600088420ED20098029930380006000E0870B9
:1006700003D10299019881420AD90298401C029044
:1006800006E0E00501D5244801E0234840420990F6
:10069000B9696D1C12988847009013980560002E68
:1006A00004DD009802F0E7FF0028D2D1F969129822
:1006B00088470F99FF200870029903AA087000204C
:1006C0000A900B900CA90AA8099BFFF76DFEA005E4
:1006D00002D40120C0431AE72420044209D0E007D5
:1006E00013D138680B9A0A99031D3B60006806C055
:1006F0000BE00B990A9800F0E4F90146E00704D1F9
:100700003868021D3A60006801602846FFE6000074
:10071000000014400000F03FF1D8FFFFF0B507469D
:100720000846584087B0C00F049048000E46590054
:1007300040084908BC1A884105D2384631461E4651
:1007400017460B4602465800400810434CD0300D67
:10075000039040055900400D490D0590401A029044
:10076000402872DA18030121000B090508430190A3
:1007700004980092002805D0019952420020884137
:1007800000920190029840210A1A0199009800F005
:10079000EBF905460C466B4607CB00F0F5F9C0199E
:1007A0007141039A0E0D0023D71756401A467A401E
:1007B000164344D0049A002A2DD0029A012A039AA3
:1007C00015DC1205C01A914101263605001C714145
:1007D000D20F059ED2070093019202962A46234625
:1007E00000F07AFA07B0F0BD38463146FAE7160550
:1007F000224A0F46B218C01AB74101210905001C50
:100800004F4100187F41114618187941E20F1043FB
:100810006D19644113E0E2076D0815436408C207CF
:100820001443039A01261205C01A91413605001C93
:100830007141CE07400830434908C01851412A464B
:10084000234600F03CFACDE7FFE704980122400080
:10085000C117121A00238B4104983146C417381A65
:10086000A141EEE730B40124E407634030BC55E712
:1008700030B40124E407614030BC4FE70000E0FFE2
:10088000F0B51FB488B00B99099800244840099925
:10089000C00F490049080991C0070B990090490011
:1008A00049080B9109990898A64608431CD00B9952
:1008B0000A98084318D0099801244000420D4800C6
:1008C000410D099824050003000B204309900B9863
:1008D0000003000B20430B9050181C4940180022C5
:1008E00001901446104605E0002001460DB0F0BD11
:1008F000032801DA034600E003239C46C11A0AAE2E
:100900000AE05F0008ADED5B4F00F75B7D43002719
:10091000AA187C41491C5B1E6145F2DD410004AB15
:100920005A522104120C0A43240C401C0828DFDB15
:10093000019802900099704601910090059B049ADD
:100940000799069800F0C8F9D0E700000DFCFFFFFA
:10095000F0B50C465C4085B0E40FE40703944C000E
:10096000002664085900944649080246029622432C
:1009700021D062460A431ED06200570D4A000E0382
:100980002303550D012402462C492405781B1B0B1B
:10099000360B401823432643614600901C46501AEC
:1009A000B44103D30098401C009002E092180098D4
:1009B0005B41002803DA0020014605B0F0BD0020AD
:1009C000012109050746864611E064461D46141BB1
:1009D000B54106D36546521BB341744607430C43E9
:1009E000A646CD0740084908284392185B410546B2
:1009F0000D43EAD11046184313D0604619465040C3
:100A00007140084306D06046101AB34106D2012255
:100A1000002306E000220123DB0702E00122D2438B
:100A20005310009874460105381C6141029C039DD7
:100A30000019694100F043F9BFE70000FD03000021
:100A40000EB5C217C10F5040CA0740180021054B10
:100A50000293019200910A460B4600F03DF903B063
:100A600000BD000033040000C20F4100400201231A
:100A7000400ADB05D207090EC0187F2901DA0020E1
:100A80007047962903DC9623591AC84001E096392D
:100A90008840002AF4D040427047C20FD20740007D
:100AA00040080BD0C10D0723DB01C918400209051E
:100AB000400A1143C2084007114370470020014615
:100AC0007047CB0FDB07490010B5490802460A43BF
:100AD00007D00A0D07240903E401090B121B002AA1
:100AE00001DC002010BDC900440F0C43C100E01818
:100AF000D205801800F0A2F810BD70B50446002998
:100B000003D000202022012310E0002801D0002083
:100B1000C043C046C0460DE02546D5408D4205D3B2
:100B20000D469540641B1D46954040191546521EC2
:100B3000002DF1DC214670BD30B5434351435C18B4
:100B4000010C130C0D465D432C1980B292B2054680
:100B5000554351430A0C09044D1962415843010C95
:100B600000044019514130BD10B5202A04DB014674
:100B7000203A9140002010BD914020239C1A03464A
:100B8000E3401943904010BD10B5202A06DBCB1777
:100B90000846203A1041C1170B4306E00B461341AB
:100BA000D0402024A21A91400843194610BD3A288B
:100BB00000D23038202302469A43412A01D31046FE
:100BC0003738884201D30020C04370470268137849
:100BD000511801601846704710B5D1600449516141
:100BE0000449116200211161114600F0FFF810BDA7
:100BF000CD0B0008DF0D00084268002A08D001680C
:100C00000B78491C002B03D0521E06C018467047B3
:100C10000121C160881E70474268002A0BD0C3685A
:100C20000168002B07D183688B4204D0491E521CF7
:100C300006C0002070470020C0437047002904DA36
:100C4000401C490001D140084000704770B40024A6
:100C5000050C05D11024000402D1002921D0112453
:100C6000050E01D100020834050F01D10001241D39
:100C7000850F01D18000A41C002801DB4000641C0A
:100C8000002908D020252E1B0D46F540A14000D09C
:100C900001212943084301061B1B000ADB1D02D565
:100CA000002070BC7047DB05181880180029F8DA9E
:100CB000401C4900F5D170BC40084000704710B599
:100CC000002B08DA0024401C614192185B411A4352
:100CD00001D14008400010BDF0B51FB482B00546F8
:100CE0000C0003D0084602F0A0FC02E002F09DFCDC
:100CF00020300246009021462846FFF735FF049B2E
:100D0000059A04460F4618431143084314D0184669
:100D100010431BD0009840210A1A1846059900F08C
:100D20004DF805460E46009A05990498FFF71CFFFA
:100D3000084305D0012004E02046394607B0F0BD45
:100D40000020C11705430E432C43374300990E98EA
:100D50006305401A7905E40A00220C43FD0A0A30B3
:100D600002D500200146E9E70105101969410C9CF4
:100D70000D9D00196941FFF7A2FFDFE70EB5054A97
:100D800002920022009213460192FFF7A5FF03B0E2
:100D900000BD000033040000064C0125064E05E0AE
:100DA000E36807CC2B430C3C98471034B442F7D38C
:100DB000FFF78AF9583700087837000810B5202A5D
:100DC00004DB0846203AD040002110BD0B46D3403A
:100DD000D0402024A21A91400843194610BD10B5F6
:100DE0000F21C0B2490200F09DF910BDF3B58DB0DE
:100DF00000200A9001200B90002608460C300C467B
:100E000009906269012109989047051E2ED0252D71
:100E10002DD0216A8847002818D0626901210998DD
:100E20009047216A88470028F7D1411E62690998D6
:100E3000904700E0761CA1690D988847216A884791
:100E40000028F7D1E1690D988847DAE7A1690D9884
:100E500088470746A84201D1761CD2E7E1690D9880
:100E600088477F1C02D10A98002877D049E10027E3
:100E700062693D463946099890472A280CD1626933
:100E8000012109989047012506E00A214F433F18A8
:100E9000303FEBD410200543626901210998904747
:100EA000014630390A2903D29B498F42DEDCECE748
:100EB000E90600D4994F6C280AD04C2810D0682835
:100EC00024D06A282ED074280CD07A280AD00DE0BD
:100ED00062690121099890476C2823D004211CE005
:100EE000202005436269012109989047A760656049
:100EF00065284FD026DC582839D01ADC452849D03F
:100F000012DC252834D04128B0D143E062690121A8
:100F100009989047682802D008210D43E6E7012090
:100F2000C002DEE70220DCE7462833D047282CD178
:100F300030E05B2870D061282CD063286CD0642806
:100F400023D161E06F284FD009DC662822D06728C2
:100F500020D0692826D06E2817D12EE0CDE0702849
:100F60004DD073286FD075284ED078280DD154E01D
:100F7000A1690D9888470546252800D16CE7E169ED
:100F80000D9888476D1C00D16DE7BAE00A224CE04D
:100F90000A2252E0012023466A46C0430D99FFF71A
:100FA00092FAA3E02846402108436060A807234640
:100FB00001D5002239E000223FE0E80700D020E719
:100FC0002068011D21600068290501D5067018E719
:100FD000290701D5068014E7A90703D5F117066094
:100FE00041600EE706600CE7284640210843606038
:100FF000A807234601D5082217E008221DE048492A
:1010000028460840606016E028464021084360609A
:10101000A8072346BCD5B9E715E028464021084378
:101020006060A80707D5234610220120C0430D9910
:10103000C046C0465AE0234610220120C0430D9905
:10104000FFF798F852E000210C910B4600916328BD
:1010500002D05B2807D043E0E80601D40120A0605D
:10106000012000903CE062690121099890475E28C8
:1010700005D101200C9001466269099890472169C9
:10108000002906D10B4601AA8F00491CD35108291B
:10109000FADB002835D0216900290ED1C117C90E0D
:1010A00009184A11930001AA9A1849094901411ADD
:1010B0000120136888400343136062690121099885
:1010C00090475D28E5D10C98002808D0002001AB9E
:1010D00081005A58401CD2435A500828F8DB01AB13
:1010E00001202246C0430D99FFF7E9F800280ADAEB
:1010F000401C06D10B98002803D00020C0430FB03D
:10110000F0BD0A98FBE7E90702D10A99491C0A9148
:10111000361800200B9074E6CCCCCC0CFFFFFF7F80
:10112000F1F7FFFF7F2801D9002207E0054B4208B5
:101130009A5CC00700D112091207120F01209040DB
:10114000084070478436000880B5024800F0D2F8A5
:1011500080BDC0463401002080B5024800F0CAF8C6
:1011600080BDC046D800002010B504460948216C57
:1011700009188030032291436164A0642078083804
:101180001421FFF7BAFC1F21014001208840E064D0
:1011900010BDC0460008024010B5084942683F2310
:1011A00013405A1E0323134001249C4092005218FE
:1011B000403102654165846510BDC04600090240AA
:1011C00070B5846CC56C6560046D002C02D0446DF4
:1011D000856D6560046C1C2525400124AC40724D72
:1011E0002E6826432E6004686360806810281346CA
:1011F00000D00B46A360102800D01146E16070BDFE
:1012000080B5042000F082F980BDEFF3108072B643
:10121000FEE7000070B500282AD0014624314A7844
:10122000022A27D1046822680E239A432260426C66
:1012300015682F4B1D4015602568012295432560D8
:10124000046C1C2525401446AC40574D2E6826439F
:101250002E60846CC56C6560046D002C05D025681B
:101260001D402560436D806D58604A70002004E089
:10127000012070BD0422C263012000220A7070BDEB
:1012800070B52521415C02292DD101462431036826
:101290001A680E24A2431A601C68012294431C6041
:1012A000446C2568124B1D402560046C1C252540AC
:1012B0001446AC403C4D2E6826432E60846CC56CB1
:1012C0006560046D002C05D025681D402560436DC8
:1012D000846D5C6000240C704A70816B002900D022
:1012E0008847204670BD0421C1630124204670BD9B
:1012F000FFFEFFFFF0B581B0016C1C240C402A49B1
:101300000A1F156802681668730714D504210F4672
:10131000A7403B462B400ED013689B0602D41368AF
:101320008B431360204A116839431160016B002917
:101330001CD101B0F0BD03462433B10719D50227F3
:10134000A7403946294014D01168890605D4116890
:101350000A24A14311600121597000211970124A19
:10136000116839431160C16A0029E2D0884701B091
:10137000F0BD3107DDD50821A1402940D9D0116841
:101380000E25A943116001210A46A240064D2C6892
:1013900014432C60C16300221A705970416B0029FC
:1013A000C7D0884701B0F0BD04000240F0B583B05B
:1013B000002843D00446014624310220029148709F
:1013C00026683068244901403160244830181421CF
:1013D000FFF793FB80002064A16827460C378DCF70
:1013E000E5690095256A0195084310431843384381
:1013F0000099084301990843316801433160204650
:10140000FFF7B2FE0126B003A168814201D100209E
:10141000606060683F210140626C1160A16CE26C09
:101420004A60401E03280CD82046FFF7B5FE206D09
:1014300000210160606DA16D416006E0012003B0F4
:10144000F0BD002020656065A0650020E063029982
:1014500008704E7003B0F0BD0F80FFFFF8FFFDBFB6
:10146000F0B581B005462420285C012801D1022472
:1014700037E028462430012404704678012E12D12A
:10148000022444700024EC63286807680126B743EF
:1014900007602846FFF794FE286801682A6B002A37
:1014A00006D00E2209E0002101708020E86318E0D8
:1014B00004229143016002680A2111430160300255
:1014C000696C0A68D20302D50A6802430A60296D72
:1014D000002902D00A6802430A6028680168314383
:1014E0000160204601B0F0BDB0B5044600F0F8F848
:1014F0000546601C02D09B480078041900F0F0F803
:10150000401BA042FAD3B0BD70470000B0B50446FE
:10151000074D2868204203D02C60204600F00AF8CE
:101520006868204203D06C602046FFF7EDFFB0BD35
:101530000C18024070470000F0B588B00B460968EF
:10154000002900D1B7E002465C48824201D0052064
:1015500000E0032000900124002005460690074685
:10156000019407920FE03843039F564908601968B9
:101570000846E040069E361D0696AD1C0837641CE2
:10158000002800D197E0661E01980596B040014002
:101590000291ECD0039719465B6803261F46049618
:1015A00037407E1E012E13D8049EAE40079A9268E3
:1015B000B243CE68AE401643079A9660DA06D20F61
:1015C000059B9A40079B5B6883431343079A5360CC
:1015D000032F0B46049E1ED03046A840079AD268BF
:1015E00082439868A8401043079AD060022F12D116
:1015F0001C20069A10400F268640059AD2089200B9
:10160000079B9A18136AB3430E6986401E430B4624
:101610001662049E079A3046A840116881435868B4
:1016200082033040A840084307990860900F079A4A
:10163000039F9CD0182139400F208840059FB74355
:101640001F4EF619376E8743603605200007824229
:101650000AD01D48824205D01C488242009804D11D
:10166000022002E0012000E0002088403843306082
:10167000134800685E68F10202D5029F384301E01A
:10168000029FB8430E4908604868B10201D538434B
:1016900000E0B8430A4948600A484068B10301D5F0
:1016A000384300E0B843074948600868F10300D5B3
:1016B00059E7B84358E708B0F0BDC046000C0050E9
:1016C000001802408018024000040050000800503A
:1016D000002A02D01822815070472822815070477A
:1016E000054800687047C0461E48007802490A68ED
:1016F000101808607047C0465804002010B5012437
:101700002002F4490A6802430A60032000F00AF844
:10171000002801D0204610BD00F026F80024204605
:1017200010BDC046B0B505460E4801780124002919
:1017300016D07D20C000FFF7E0F90146EB480068B5
:10174000FFF7DBF900F044FC032D09D8002807D18E
:101750000024E0432946224600F020F8E0480560D6
:101760002046B0BD5800002082B0094841680122DF
:1017700011434160416811400191019911070268CC
:101780000A430260006808400090009802B0704769
:101790003C10024080B501F025FC80BD80B501F011
:1017A0002DFC80BDF0B581B0032569026E4E326814
:1017B0008A430243326001214A020024904212D13E
:1017C000CA480268706940050DD58F020620504353
:1017D0000649FFF792F9801C401E03D07169394217
:1017E000FAD100E02C46204601B0F0BD40420F0087
:1017F000F0B587B00646807880075A4F01D400259F
:101800003EE0059601221107203F38680840049009
:1018100006D1386808433860386808400690069852
:1018200002970391019216024F4C206830432060CA
:10183000FFF756FF05462768374006D1FFF750FFF0
:10184000401B0328F7D3032500E00025059E002F49
:1018500001D1444F0CE003242102424F3868084074
:1018600055D07269904256D1C00761D1002D70D019
:101870000498002804D1029A1068039988431060E4
:101880003068C10707D0394608390A6803239A43EC
:10189000736813430B60810608D5032109033A4698
:1018A000083A13688B43B16819431160012142045F
:1018B00017D53A46083A13682D4C23400C46294662
:1018C0003546366933431360294A521C96422E46E8
:1018D0000D46214605D10A043B46503B1C68144383
:1018E0001C60000510D58803032292033B46083B89
:1018F0001C689443F26814431C60824204D10804BB
:10190000503F396801433960284607B0F0BD0020D8
:10191000C007ABD00CE03868019A12043B6813434F
:101920003B603B6893433B6088433860C0079DD071
:101930000194FFF7D5FE06460C4C3868800705D4A5
:10194000FFF7CEFE801BA042F7D3019D059E002D20
:101950008ED10320000239688143706908433860E2
:10196000002585E75C1002400070004089130000EC
:10197000FFFFFF3FF0B583B00D460121002800D1E5
:10198000A5E0019102905348006807242040A84236
:1019900014D250490868A043284308604E4EFFF710
:1019A0009FFE07464B4800682040A84206D0FFF73C
:1019B00097FEC01BB042F5D9032188E0029B18684E
:1019C0008107734E0CD5410703D5210332680A43C2
:1019D00032600F21090232688A43996811433160ED
:1019E000C00719D13B4800682040A84229D939498D
:1019F0000868A04328430860374FFFF771FE06468A
:101A0000344800682040A8421BD0FFF769FE801BC5
:101A1000B842F5D903215AE0586803282FD881002D
:101A200001A251585A4A8F46391A0008851A0008EF
:101A30008F1A0008991A00081146083909684905E3
:101A40002CE0029A10784007514D05D520032968F3
:101A50008143D0680843286000F05CF82968890950
:101A60003C220A401D4989581F220A40D0401F4984
:101A700008601B480068FFF755FE014627E0444A0E
:101A8000516D0AE0114608390968890306E01146DC
:101A900008390968890101E0916D8907019916D516
:101AA0001168A143014311600B4FFFF719FE064671
:101AB000374800683821014002984068C0008142E0
:101AC00090D0FFF70DFE801BB842F1D903210846E4
:101AD00003B0F0BD0020024088130000C4360008A7
:101AE0005C000020014800687047C0465400002098
:101AF00010B5FFF7F7FF044600F012FE000B800060
:101B0000034908581F210140CC40204610BDC04663
:101B10000437000810B51E4C20688006400F06D020
:101B2000226838210A401B48082A07D110BD083C0A
:101B300020688004410F1848C84010BD22680A4040
:101B4000102A15D1616803220A40032A00D01248E6
:101B500061684906490F491CFEF7CFFF61684904D7
:101B6000490E48436168490F491CFEF7C6FF10BD86
:101B700020680840202802D10120C00310BD206841
:101B80000840182801D0002010BD7D20000210BDA3
:101B90000810024000127A000024F400F0B587B06B
:101BA0000127002800D1F8E1049705900078C007CC
:101BB000FD4E2CD10598007880074CD4059800780C
:101BC00000070DD5B06838210140182900D0A6E0E3
:101BD000306E800704D505988069002800D1E1E1C6
:101BE00005980078400700D45FE1B06838210140D3
:101BF000202900D0AAE0F06D800700D452E10598BA
:101C00008068002800D04DE1002001274BE1B0683A
:101C1000F16803273A468A433821014010204840A2
:101C2000821850425041082945D0002843D10598D8
:101C30004268052000048242039200D1B8E00120EE
:101C400001048A4200D1B9E032688A4332608104DB
:101C500030688843B4E0B168382008401021414022
:101C6000F26803273A4002235340CA1851425141B7
:101C700000282BD0002929D1306801218C02059B36
:101C8000DA68002A00D1B8E00722D20290431A692C
:101C9000024332600802316801433160FFF720FDE2
:101CA00005463068204200D0B7E0FFF719FD401B21
:101CB0000228F6D971E13068800300D47AE70598EC
:101CC0004068002800D075E7049F66E13168490547
:101CD000059B03D5D968002900D1B9E07F2109020D
:101CE00072688A43596909021143716000280DD155
:101CF0000720C002316881431869084330603068AA
:101D00008004400FAB49C140AB480160AB4800685C
:101D1000FFF708FD002800D150E7049F3DE1306E39
:101D200005998969002900D181E0012108433066C5
:101D3000FFF7D6FC0546306E800700D550E7FFF769
:101D4000CFFC401B03270228F5D926E10120039090
:101D50000107F06B0840029006D1F06B0843F06376
:101D6000F06B0840069006980191954C2068C005DC
:101D700010D403980702206838432060FFF7B0FCB6
:101D800005462068384205D1FFF7AAFC401B02280F
:101D9000F7D975E005988468052C5BD0012C5DD0DF
:101DA000F06D03998843F065F06D0421884358E095
:101DB0000120810432680A4332600104306808431C
:101DC000306001204404FFF78BFC0546039800288F
:101DD0000FD03068204200D0ECE6FFF781FC401BBA
:101DE0006428F6D9D9E0FFF77BFC401B642800D9B2
:101DF000D3E030682042F6D1DCE609028843306047
:101E0000FFF76EFC05463068204200D1D6E6FFF7AA
:101E100067FC401B0228F6D9BFE07F2000027168F2
:101E2000814305984069000208437060C6E60121BD
:101E300088433066FFF754FC0546306E800700D4B7
:101E4000CEE6FFF74DFC401B03270228F5D9A4E09E
:101E5000049FA2E0F06D04210143F165F06D039948
:101E60000843F065574FFFF73BFC0546002C0FD0A9
:101E7000F06D80070FD4FFF733FC401BB842F7D951
:101E8000002003270FE0FFF72BFC401BB842F7D8D8
:101E9000F06D8007F7D40298002803D1F06B019908
:101EA0008843F0630120002877D00598C469002C8E
:101EB00072D0B06838210140102903D1012C18D10B
:101EC000049F6AE001273906306804918843306036
:101ED000FFF706FC0546022C2CD103977C063068E0
:101EE000204232D0FFF7FCFB401B03270228F6D923
:101EF00053E0F06803210140059B1A6A91424FD1DB
:101F0000702101405A6A914250D17F21090201405B
:101F10009A6A120291424BD11F2149040140DA6AA8
:101F20009142049F39D1072149070840196B884223
:101F300033D131E07C063068204229D0FFF7D0FB56
:101F4000401B03270228F6D927E0F0681F4901400B
:101F5000059F2037ADCF08431043190201432943A1
:101F60003943F160306804990843306003980007F2
:101F7000F1680143F160FFF7B3FB0546306820428A
:101F80000AD1FFF7ADFB401B03270228F6D904E076
:101F9000F0680D490140F1600027F8B207B0F0BDCC
:101FA000049FFAE7049FF8E700100240049FF4E75B
:101FB000049FF2E70024F400540000205C0000209D
:101FC0000070004088130000FCFFFEEF8C80C11FF2
:101FD00080B500F069FC80BDB0B58021415C01296D
:101FE00001D10220B0BD0246803224215160016837
:101FF0000B680C680125AC430C606C07A3430B60B5
:10200000002141661170202050600846B0BD704725
:10201000704770B504468020205C012801D1022061
:1020200070BD2546803524206860206806680268F7
:1020300001239A4302602B70072252068368934360
:102040000B438360204600F07BFC20680660002084
:1020500028702021696070BD70B504468020205C26
:10206000012801D1022070BD2546803524206860FA
:1020700020680668026801239A4302602B700722D9
:102080005207836893430B438360204600F058FC5B
:1020900020680660002028702021696070BD7047AC
:1020A00070477047F0B587B006900768FA69202638
:1020B0000125E9020B462F3313403C68B868202BFA
:1020C00012D123463340049222462C070440E318E1
:1020D0001446049A08D00698016F002900D16DE1DA
:1020E0000698884707B0F0BD059404950B460F335A
:1020F0001340069D5C35002B029000D186E0B04B6A
:10210000059C2340049C24070094641C0440E318AD
:102110007CD0019103962946D307049D08D02B0259
:10212000059E334004D03D620E460B6B2B430B6380
:1021300003462B4096070D4607D5002B05D00226F7
:102140003E62296B04260E432E635607039907D57A
:10215000002B05D004233B622B6B02261E432E630B
:10216000130708D5059B0B401C4304D008233B6292
:102170002C6B1C432C6301980242069E059C08D0E0
:10218000049B9B06234004D001983862286B0843C7
:102190002863286B002800D110E1039802400AD080
:1021A0000440029800990840204304D0316F002970
:1021B00001D030468847286B28210140306880686C
:1021C00040242040401800D1E5E0304600F008FDF2
:1021D00030688068400600D4CBE0EFF310800499AB
:1021E00081F3108831688A68A2438A6080F310887E
:1021F000F06F002800D1BCE072498163FFF740F81E
:10220000002800D1DAE0F06F816B6AE7059C204678
:102210001040C3060699CB6E3DD5012B3BD10396EA
:1022200010263E62B968490644D469882A886B88BA
:10223000002B00D1C2E0511A0A0400D1BEE0EFF336
:102240001082049F87F3108809235B0106980468B5
:10225000059525689D43256082F31088EFF3108271
:1022600087F3108803689C68584D25409D6082F371
:102270001088039A059BDA6200220267C266EFF3B8
:10228000108287F3108803681C68B4431C6082F3D3
:10229000108889B259E0D3025BD5049B9B05029953
:1022A0000B4056D00498000538620698FFF7F8FEF8
:1022B00007B0F0BD0698C16F09684A6893B2002B59
:1022C00000D17BE02C88A34200D377E06A800968C4
:1022D000890635D4EFF310812F46049D85F31088CD
:1022E000394A2032069803681C6814401C6081F348
:1022F0001088EFF3108185F3108802689368AB4370
:10230000936081F31088EFF3108185F310880268E1
:1023100093684024A343936081F310880399F96282
:102320000021C166EFF3108185F310883D460268F5
:102330001368B343136081F31088C06FFEF76AFF20
:1023400068882988081A81B20698FFF760FE07B0EE
:10235000F0BD130612D580232340049CE4050299A6
:102360002140059CCB1809D00698416F002925D043
:10237000B6E63046FFF795FE07B0F0BD400611D433
:10238000100214D504988007204010D00698FFF75B
:1023900086FE07B0F0BD3046FFF783FE00202863BD
:1023A00007B0F0BD069800F04BFC07B0F0BDD001BF
:1023B00004D5002C02D50698FFF72AFE07B0F0BD21
:1023C00020010004CD2A0008DFFEFFFFFEFFFFEF23
:1023D000B0B5002830D0044605468035686800282E
:1023E00004D100202870204600F028F824206860DE
:1023F000206801680125A9430160204600F052FCD5
:10240000012817D0A06A002802D0204600F0BCFAAC
:102410000920C00221684A6882434A6088682A22EB
:10242000904388600868012202430A60204600F059
:1024300015FB05462846B0BD0120B0BD70B58CB077
:10244000044600260B960A96099608960796069665
:1024500005960496039602960196006842498842C2
:1024600043D0424988427DD102960125019501A8B9
:10247000FFF7BEF9002801D0FEF7C7FEE048C168AB
:102480000B95AA031143C160C168114000910099E6
:102490000168294301600068284000900A96099667
:1024A00002200890032040020790009805200007B2
:1024B00007A9FFF741F8304D8020102133222D4B22
:1024C00014332B606A60A960EE6028616E61AE61B2
:1024D000EE612E622846FEF769FF002801D0FEF764
:1024E00094FEAC62A5670CB070BDC548826801213E
:1024F0000B914B041A43826082681A400092009A42
:1025000002680A4302600068084000900A96099633
:10251000022008900C20079000980520000707A9CA
:10252000FFF70AF8124D2E62202080213422114B31
:102530002B606A60AE60EE6029616E61AE61E86139
:102540002846FEF733FF002801D0FEF75EFEAC629E
:10255000E5671C24002120460A46FFF71FF92046A4
:10256000FFF718F90CB070BD00440040003801407E
:102570003401002008000240D800002070B58823F4
:10258000C3580225202B2BD10123002926D0002A55
:1025900024D00124230386689E4204D10369002BC2
:1025A00001D1CB071ED1064680363378012B2B464E
:1025B00014D00023C366347003685B681B020AD51D
:1025C000EFF3108384F31088A40605682E68264371
:1025D0002E6083F3108800F031FC0346184670BD6E
:1025E000284670BD204670BD10B598B008480168F7
:1025F000491C016000F018FE6C46204600F01EFDEC
:10260000044860222146FDF773FD18B010BDC04696
:10261000700000207800002070470000F0B587B0FF
:102620000E460746842039580220202935D101253D
:10263000002E33D00492002A30D001210C03BA6856
:10264000A24204D13A69002A01D1F20761D1039470
:102650003C4680342278012A05461FD00593224645
:102660003C4654340025D560117021200292506000
:10267000FFF736F80690049860802080B8680399C8
:1026800088420ED1386900280496059901D00022AD
:102690000492002807D1064605E00546284607B003
:1026A000F0BD049505990298057007E03078396807
:1026B0008862761C05996088401E608060880028CA
:1026C00015D000918021002538462A46069B00F04F
:1026D0000BFC002817D1002EE8D1049A10880E496F
:1026E000084039688862921C04922E46E2E7009105
:1026F0004021002538462A46069B00F0F5FB0028BD
:1027000003D00325CAE70325C8E7202002994860C3
:10271000C4E70D46C2E7C046FF0100007047FEE770
:102720000720010301480068084070470810024074
:10273000B0B582B00E480168012211430160006803
:1027400010400190019809240025204629462A4678
:10275000FFF724F82046FFF71DF80A2420462946F3
:102760002A46FFF71BF82046FFF714F802B0B0BD69
:1027700038100240F0B587B0002406940594049404
:10278000039402941E4801682022114301600168ED
:1027900011400191019901680127394301600168E5
:1027A00039400191019901680225294301600068BF
:1027B000284001900198134E304629462246FEF7E4
:1027C00087FF059404940397029502AF304639467B
:1027D000FEF7B2FE0495112000040390042002903D
:1027E00030463946FEF7A8FE0625284621462246F1
:1027F000FEF7D4FF2846FEF7CDFF07B0F0BDC04678
:10280000341002400004005010B5144800210C227E
:10281000134B016241628162E124640218C00160CD
:1028200041608160C260016141610838FFF7D0FDFD
:10283000002811D109480021FFF70EFC00280BD118
:1028400006480021FFF7E5FB002805D10348FFF704
:10285000C3FB002800D110BDFEF7D7FC900100207B
:102860000038014010B50C4800210C220B4B0162CE
:1028700041628162E124640218C0016041608160AC
:10288000C260016141610838FFF7A2FD002800D154
:1028900010BDFEF7BAFCC0462002002000440040F4
:1028A000FEE7704770470000B0B5401E010E01D032
:1028B0000120B0BD054D68600024E043032100F015
:1028C0009DFBAC60072028602046B0BD10E000E012
:1028D00080B5FEF709FF80BDF0B591B004AC34219E
:1028E0002046FDF71EFC00260396029601960096F0
:1028F00001277802FEF756FF7807109078040F90B2
:1029000010200E900D9603200C9002250B95380494
:10291000059004972046FFF741F900280CD1039653
:10292000029607200090019568462946FFF722F895
:10293000002801D111B0F0BDFEF767FC7047000020
:10294000F0B581B004466834416E002913D00068A8
:1029500085688068400F0A4E315C0A4F385CC000C1
:10296000FEF7CBF860802801400F315C385CC00076
:10297000FEF7C3F801E001206080208001B0F0BDC7
:10298000443700083C370008B0B5816ACA070CD14B
:102990008A0714D44A071CD40A0724D4CA062CD4A4
:1029A0008A0634D44A063CD44CE00122520403681F
:1029B0005C689443C26A22435A608A07EAD50122BE
:1029C000120403685C689443026B22435A604A070E
:1029D000E2D50122920403685C689443426B22436F
:1029E0005A600A07DAD50122D20303685C6894436F
:1029F000826B22435A60CA06D2D5012212030368B1
:102A00009C689443C26B22439A608A06CAD501220D
:102A1000520303689C689443026C22439A604A06FE
:102A200010D501221305026854689C43456C2C4361
:102A300054609D4206D103235B0554689C43836C1C
:102A400023435360090607D50121C904026853686E
:102A50008B43C06C18435060B0BD000070B582B0AD
:102A600005468C2000242C50FEF73AFE06462868C6
:102A7000006800070CD51448009001204105002291
:102A80002846334600F030FA002801D0032417E02E
:102A90002868006840070CD50B480090012081058C
:102AA00000222846334600F01FFA002801D00324F4
:102AB00006E0284680302021416081600470EC6689
:102AC000204602B070BDC046FFFFFF0180B5806A9E
:102AD0000146563100220A8156214252FFF7E1FA9F
:102AE00080BDF0B581B0846A8420215825468435A4
:102AF0006F682068806826465636212907D18021D4
:102B0000084004D000203080204600F0AEF8206855
:102B10008068222F07D14021084004D00020308156
:102B2000204600F05DF8A86810210143A960204606
:102B3000FFF7B7FA01B0F0BD70B50146806A0246F2
:102B40005C3209680968890632D400215180EFF3AC
:102B50001083012181F310880C0205682E68A643BA
:102B60002E6083F31088EFF3108381F310880468DC
:102B7000A5688D43A56083F31088EFF3108381F37C
:102B800010880468A5684026B543A56083F31088C3
:102B90002023D362C36E012B0AD1EFF3108381F39C
:102BA000108801680C681025AC430C6083F3108812
:102BB000C16E012903D11188FFF729FA70BDFFF713
:102BC00013FD70BD80B5806AC16E012905D15C21FD
:102BD000415A4908FFF71BFA80BDFFF71DFD80BD74
:102BE000B0B5EFF31082012181F3108809235B0156
:102BF000046825689D43256082F31088EFF31082F6
:102C000081F3108803689C680C4D25409D6082F319
:102C10001088C26E012A0AD1EFF3108281F3108866
:102C200001680B681024A3430B6082F3108888218D
:102C30002022425000210167C166B0BDFEFFFFEFB8
:102C400010B5EFF31081012282F310880268136837
:102C50004024A343136081F3108884212022425032
:102C600000214167FFF75AFD10BDB0B5EFF31081A9
:102C7000012282F3108803681C68C025AC431C60E5
:102C800081F31088EFF3108182F31088D205036876
:102C90009C6894439C6081F31088842120224250D8
:102CA000B0BD0000F0B581B0044600680168564A26
:102CB0000A40A16823690B4365691D43E1690D431F
:102CC000154305600322120343689343E2681A43E5
:102CD0004260A269236A134382684C4D15401D432C
:102CE0008560C26A0F239A43636A1343C362484AEA
:102CF000904209D0474A904208D14748006880076F
:102D0000000F46A2135802E0002300E010232646DD
:102D100068360125EA034548914211D1082B21D894
:102D20000027C0467B441B795B009F44041B221B89
:102D3000201B1B1B3D00FEF7DBFE00281BD136E0ED
:102D4000082B36D80027C0467B441B795B009F4484
:102D500004303730353030304E00FEF7C9FE0028E1
:102D600030D147E000200127002804D11FE0FEF702
:102D7000D1FE00281BD0616A49002D4A515AFDF747
:102D8000BCFE400061684A081018FDF7B6FE024616
:102D9000103A28498A422ED201400007400F0843CA
:102DA0002168C8603D4626E010460028E3D13D4634
:102DB00021E000200127002804D11BE0FEF7AAFE35
:102DC000002817D0616A4900194A515AFDF795FE4B
:102DD00061684A081018FDF790FE01461039154A3F
:102DE000914208D2216880B2C8603D4603E0104697
:102DF0000028E7D13D46104830600020206760671A
:102E0000284601B0F0BDC046F369FFCFFFF4FF11C3
:102E1000004400400038014054100240000000000F
:102E20000400000002000000080000000024F4007C
:102E300024370008F0FF000001000100F0B581B068
:102E400013460A4605468C2000242C505C202B5249
:102E5000882022212950AA65E86F2E468036002856
:102E600013D01F4F1F49C16207631C49416384632C
:102E700029682431FEF7F4FA002806D01020F0600B
:102E800034702020B060012425E0347028690028C7
:102E90000BD0EFF31080012181F3108809022A681A
:102EA00013680B43136080F31088EFF31080012147
:102EB00081F310882A6893680B43936080F310882D
:102EC000EFF3108081F3108829688A684023134348
:102ED0008B6080F31088204601B0F0BDE32A000823
:102EE000C52B0008392B0008F0B585B004930D46BA
:102EF00004460068C0690840401A41424141002030
:102F0000914246D1174602902046803001900A9E99
:102F100001200090C002039007E02068C0692840AB
:102F2000401B41424141B94232D1701CF5D0FEF7FD
:102F3000D7FB002E2FD00499401AB0422BD820681E
:102F400001684907E9D5C169039A1142E5D003999F
:102F50000162EFF31080009D85F310880D21490177
:102F6000226813688B43136080F31088EFF310809E
:102F700085F3108821688A68AA438A6080F31088E4
:102F80002020019A5060906000211170D0601FE0F5
:102F9000029805B0F0BDEFF31080009D85F3108816
:102FA0000D214901226813688B43136080F3108858
:102FB000EFF3108085F3108821688A68AA438A603D
:102FC00080F310882020019A5060002111709060D9
:102FD000032005B0F0BD000080B57348FFF762F82C
:102FE00080BDC046002805D41F2108400121814032
:102FF000014801607047C04600E100E0002805D4A8
:103000000322034693430C4A9A1806E00F2202401B
:10301000083A03239A43074BD2188007C00E890150
:10302000C9B28140FF238340106898430843106071
:103030007047C0461CED00E000E400E0F0B5AFB022
:1030400004463749088807280AD300200122354B57
:103050009D5C6840521C0D886D1FAA42F8DB00E0A1
:103060000020314F3870314DE87A2E4E3018401D17
:1030700022465C322EA1FDF75FF83878E16D81427F
:103080004CD168783018401C94492246FDF754F81A
:1030900027460837684627493A46136804320360D2
:1030A00004300439F9D10CCC16AE3046083C00F09F
:1030B000E7F96025204631462A46FDF719F86846AB
:1030C0001C493A4613680432036004300439F9D1CC
:1030D0000CCC16AE3046083C00F0B8F8204631461D
:1030E0002A46FDF705F8684612493A680437026037
:1030F00004300439F9D10CCC16AE3046083C00F04F
:1031000085F9204631462A46FCF7F2FFA269E369B9
:10311000A068E1682034009400F0E4F82FB0F0BD1E
:10312000B0020020B40200206000002061000020F6
:103130002578000058000000F0B581B01948FEF76E
:10314000D3F9194C194912253F4E20462A463346D9
:10315000FFF764FA7D208000FEF7C6F914491422B7
:1031600020463346FFF75AFA64273846FEF7BCF983
:1031700010491C2220463346FFF750FA3846FEF726
:10318000B3F90D4920462A463346FFF747FA384639
:10319000FEF7AAF92349C8222046FFF7EFF901B04C
:1031A000F0BDC046B80B0000200200201C0000202B
:1031B00040000020000000202E000020B0B50021BB
:1031C0001848425C242A03D0491C9629F9D10021D1
:1031D0000A46835C2A2B06D0521C4B239B009A4242
:1031E000F7D1002200E0D2B2521A521D144D2A80AB
:1031F00041182A889C4C2046FCF77AFF2888002832
:103200000ED000209749024603E0401C2B889842CC
:1032100006D2235C2C2BF8D1D3B2C854521CF4E74D
:10322000B0BDC0462C03002080B5FFF7C7FF04489F
:1032300002880448F349044BFFF7F0F980BDC0460B
:10324000B002002090010020FFFF000082B0F0B526
:1032500081B0009006920793E94CA078E94E3018AF
:10326000401C06AD2A4608321B49FCF765FFE07892
:103270003018401C6A1C194F3946FCF75DFF207955
:103280003018401C2A4618321349FCF755FF607964
:103290003018401C2A4610323946FCF74DFF0026F4
:1032A0000F4F0898099932463B46FDF751FB0890AD
:1032B00009910C980D9932463B46FDF749FB0C905D
:1032C0000D91602200982946FCF712FF01B0F0BC76
:1032D00001BC02B00047C046533700084C37000815
:1032E00000005940F0B587B0049316460C9C0027A7
:1032F000A7713D4B3A46FDF711FA069005913B4BFD
:103300003A46FDF725FBFDF7DCFBFDF7ADFB054677
:1033100041306070364B304604993A46FDF7FEF96D
:1033200004900391334B3A46FDF712FBFDF7C9FBBE
:10333000FDF79AFB06464130207000940A20454371
:103340002846FDF77DFB02460B4606980599FDF7DA
:1033500089FA02900191FDF7B4FBFDF785FB054664
:103360003030E070142046433046FDF769FB0246DA
:103370000B4604980399FDF775FA069005911E4BCC
:103380003A46FDF77DFAFDF79CFBFDF76DFB044621
:103390003030009EB0702846FDF752FB02460B46C7
:1033A00002980199FDF75EFA144A154BFDF7D0FA21
:1033B000FDF787FBFDF758FB613070716000FDF78A
:1033C0003FFB02460B4606980599FDF74BFA0D4A5E
:1033D0000D4BFDF7BDFAFDF774FBFDF745FB6130C2
:1033E000307107B0F0BDC046008056400000244058
:1033F00000806640000034400000E03FC81BAA7314
:103400005655A53F1CF22AC65455B53F82B0B0B5FB
:103410000446049205931348807913490818401C08
:1034200004AD2A46583211A1FCF786FE1A98FDF722
:1034300034FB0F4A0F4BFDF723FAFDF742FB1990BF
:10344000FDF72BFB0C4A0D4BFDF782FAFDF739FB1C
:103450001890602220462946FCF74AFEB0BC01BC09
:1034600002B0004761000020B4020020253366004E
:103470006F1283C0CAA1FD3FCDCCCCCCCCCC0C40CC
:1034800082B0F0B581B00090069207935C4F387817
:103490005C4D2818401C06AC224640325A4E31463C
:1034A000FCF74AFE16980F2801DC082101E00F21E5
:1034B000C9430818179038782818C01C224648328B
:1034C0003146FCF739FE38782818401D22464C3228
:1034D0003146FCF731FE387A2818401C2246383233
:1034E0003146FCF729FE14981699179A8A4200DA99
:1034F000401C1590387A2818401D27462837314639
:103500003A46FCF719FE7D2000011099081810902A
:103510003B48007A2818C01C2546303531462A46DB
:10352000FCF70AFE14991598884205D1A06AE0625A
:10353000206B6063009D56E02868421E0B2A009DA8
:1035400051D8C0467A4412795200974405091216A0
:103550001A1E22262A2E32361F2937D102203FE09A
:103560003A6893073FD11D2934D10123E363032334
:1035700032E01F292AD1042032E01E2926D105205D
:103580002EE01F2922D106202AE01E291ED1072065
:1035900026E01F291AD1082022E01F2916D1092070
:1035A0001EE01E2912D10A201AE01F290ED10B207D
:1035B00016E01E290AD10C2012E01F2906D1012095
:1035C0006063E063A06A401CE0620CE06063A06A94
:1035D000E06208E0E262034663631C290DD1032028
:1035E00060630120E063602228462146FCF780FDED
:1035F00001B0F0BC01BC02B000476063E262F2E7D8
:1036000061000020B40200204F370008FEF776F872
:10361000FFF762F9FFF7AEF8FFF78AF8FFF7F4F863
:10362000FFF720F9FFF788FDFEE72021020C01D00B
:1036300010211046020A01D010460839020901D0B3
:103640001046091F820801D01046891E420801D089
:10365000881E7047081A704702E008C8121F08C188
:10366000002AFAD170477047002001E001C1121F03
:10367000002AFBD1704730380A2801D20120704758
:1036800000207047DDDDDDDDDCBBBBDDDDDDDDDD4C
:10369000DDDDDDDD9888888888888888777777778A
:1036A0007788888885555556666666666666666656
:1036B0006668888883333332222222222222222201
:1036C0002228888D0000000000000000000000009B
:1036D00000000000000000000000000000000000EA
:1036E00000000000010000000200000003000000D4
:1036F00004000000060000000700000008000000B1
:1037000009000000000000000000000000000000B0
:1037100000000000010000000200000003000000A3
:1037200004000000010002000400060008000A0076
:103730000C00100020004000800000010101010386
:1037400007010000080402040801010125630025A7
:10375000326400256C660000783700080000002005
:103760006000000058360008D837000860000020CC
:1037700000080000683600082450474B43323432BA
:103780002C302C312C302C302C302C302C302A3357
:10379000360D0A002450474B433033302C312C3245
:1037A0002A32460D0A002450474B433130312C3128
:1037B00030302A33320D0A002450474B4331323126
:1037C0002C352C462C372A32420D0A000024F400F6
:0837D0000100000004000000EC
:04000005080000C12E
:00000001FF
